{
  "contractName": "Ownable",
  "abi": [
    {
      "constant": true,
      "inputs": [],
      "name": "cfo",
      "outputs": [
        {
          "name": "",
          "type": "address"
        }
      ],
      "payable": false,
      "stateMutability": "view",
      "type": "function"
    },
    {
      "constant": true,
      "inputs": [],
      "name": "cto",
      "outputs": [
        {
          "name": "",
          "type": "address"
        }
      ],
      "payable": false,
      "stateMutability": "view",
      "type": "function"
    },
    {
      "constant": true,
      "inputs": [],
      "name": "owner",
      "outputs": [
        {
          "name": "",
          "type": "address"
        }
      ],
      "payable": false,
      "stateMutability": "view",
      "type": "function"
    },
    {
      "constant": true,
      "inputs": [],
      "name": "ceo",
      "outputs": [
        {
          "name": "",
          "type": "address"
        }
      ],
      "payable": false,
      "stateMutability": "view",
      "type": "function"
    },
    {
      "inputs": [],
      "payable": false,
      "stateMutability": "nonpayable",
      "type": "constructor"
    },
    {
      "anonymous": false,
      "inputs": [
        {
          "indexed": true,
          "name": "previousOwner",
          "type": "address"
        },
        {
          "indexed": true,
          "name": "newOwner",
          "type": "address"
        }
      ],
      "name": "OwnershipTransferred",
      "type": "event"
    },
    {
      "constant": false,
      "inputs": [
        {
          "name": "newOwner",
          "type": "address"
        }
      ],
      "name": "transferOwnership",
      "outputs": [],
      "payable": false,
      "stateMutability": "nonpayable",
      "type": "function"
    },
    {
      "constant": false,
      "inputs": [
        {
          "name": "newCEO",
          "type": "address"
        }
      ],
      "name": "transferCEO",
      "outputs": [],
      "payable": false,
      "stateMutability": "nonpayable",
      "type": "function"
    },
    {
      "constant": false,
      "inputs": [
        {
          "name": "newCFO",
          "type": "address"
        }
      ],
      "name": "transferCFO",
      "outputs": [],
      "payable": false,
      "stateMutability": "nonpayable",
      "type": "function"
    },
    {
      "constant": false,
      "inputs": [
        {
          "name": "newCTO",
          "type": "address"
        }
      ],
      "name": "transferCTO",
      "outputs": [],
      "payable": false,
      "stateMutability": "nonpayable",
      "type": "function"
    },
    {
      "constant": true,
      "inputs": [],
      "name": "whoisCEO",
      "outputs": [
        {
          "name": "",
          "type": "address"
        }
      ],
      "payable": false,
      "stateMutability": "view",
      "type": "function"
    },
    {
      "constant": true,
      "inputs": [],
      "name": "whoisCTO",
      "outputs": [
        {
          "name": "",
          "type": "address"
        }
      ],
      "payable": false,
      "stateMutability": "view",
      "type": "function"
    },
    {
      "constant": true,
      "inputs": [],
      "name": "whoisCFO",
      "outputs": [
        {
          "name": "",
          "type": "address"
        }
      ],
      "payable": false,
      "stateMutability": "view",
      "type": "function"
    }
  ],
  "bytecode": "0x608060405234801561001057600080fd5b50336000806101000a81548173ffffffffffffffffffffffffffffffffffffffff021916908373ffffffffffffffffffffffffffffffffffffffff160217905550610ce7806100606000396000f3006080604052600436106100af576000357c0100000000000000000000000000000000000000000000000000000000900463ffffffff1680631ed20347146100b457806349f025911461010b5780635c41ac7b1461014e578063620ddef0146101a5578063777dff4a146101fc5780638da5cb5b1461023f578063908921fc14610296578063b2a6105f146102ed578063ca965c3f14610344578063dec64d1114610387578063f2fde38b146103de575b600080fd5b3480156100c057600080fd5b506100c9610421565b604051808273ffffffffffffffffffffffffffffffffffffffff1673ffffffffffffffffffffffffffffffffffffffff16815260200191505060405180910390f35b34801561011757600080fd5b5061014c600480360381019080803573ffffffffffffffffffffffffffffffffffffffff169060200190929190505050610447565b005b34801561015a57600080fd5b50610163610657565b604051808273ffffffffffffffffffffffffffffffffffffffff1673ffffffffffffffffffffffffffffffffffffffff16815260200191505060405180910390f35b3480156101b157600080fd5b506101ba610681565b604051808273ffffffffffffffffffffffffffffffffffffffff1673ffffffffffffffffffffffffffffffffffffffff16815260200191505060405180910390f35b34801561020857600080fd5b5061023d600480360381019080803573ffffffffffffffffffffffffffffffffffffffff1690602001909291905050506106a7565b005b34801561024b57600080fd5b506102546108b7565b604051808273ffffffffffffffffffffffffffffffffffffffff1673ffffffffffffffffffffffffffffffffffffffff16815260200191505060405180910390f35b3480156102a257600080fd5b506102ab6108dc565b604051808273ffffffffffffffffffffffffffffffffffffffff1673ffffffffffffffffffffffffffffffffffffffff16815260200191505060405180910390f35b3480156102f957600080fd5b50610302610902565b604051808273ffffffffffffffffffffffffffffffffffffffff1673ffffffffffffffffffffffffffffffffffffffff16815260200191505060405180910390f35b34801561035057600080fd5b50610385600480360381019080803573ffffffffffffffffffffffffffffffffffffffff16906020019092919050505061092c565b005b34801561039357600080fd5b5061039c610b3c565b604051808273ffffffffffffffffffffffffffffffffffffffff1673ffffffffffffffffffffffffffffffffffffffff16815260200191505060405180910390f35b3480156103ea57600080fd5b5061041f600480360381019080803573ffffffffffffffffffffffffffffffffffffffff169060200190929190505050610b66565b005b600360009054906101000a900473ffffffffffffffffffffffffffffffffffffffff1681565b600073ffffffffffffffffffffffffffffffffffffffff168173ffffffffffffffffffffffffffffffffffffffff161415151561048357600080fd5b600073ffffffffffffffffffffffffffffffffffffffff16600360009054906101000a900473ffffffffffffffffffffffffffffffffffffffff1673ffffffffffffffffffffffffffffffffffffffff16141561053a576000809054906101000a900473ffffffffffffffffffffffffffffffffffffffff1673ffffffffffffffffffffffffffffffffffffffff163373ffffffffffffffffffffffffffffffffffffffff1614151561053557600080fd5b610597565b600360009054906101000a900473ffffffffffffffffffffffffffffffffffffffff1673ffffffffffffffffffffffffffffffffffffffff163373ffffffffffffffffffffffffffffffffffffffff1614151561059657600080fd5b5b8073ffffffffffffffffffffffffffffffffffffffff16600360009054906101000a900473ffffffffffffffffffffffffffffffffffffffff1673ffffffffffffffffffffffffffffffffffffffff167f8be0079c531659141344cd1fd0a4f28419497f9722a3daafe3b4186f6b6457e060405160405180910390a380600360006101000a81548173ffffffffffffffffffffffffffffffffffffffff021916908373ffffffffffffffffffffffffffffffffffffffff16021790555050565b6000600260009054906101000a900473ffffffffffffffffffffffffffffffffffffffff16905090565b600260009054906101000a900473ffffffffffffffffffffffffffffffffffffffff1681565b600073ffffffffffffffffffffffffffffffffffffffff168173ffffffffffffffffffffffffffffffffffffffff16141515156106e357600080fd5b600073ffffffffffffffffffffffffffffffffffffffff16600260009054906101000a900473ffffffffffffffffffffffffffffffffffffffff1673ffffffffffffffffffffffffffffffffffffffff16141561079a576000809054906101000a900473ffffffffffffffffffffffffffffffffffffffff1673ffffffffffffffffffffffffffffffffffffffff163373ffffffffffffffffffffffffffffffffffffffff1614151561079557600080fd5b6107f7565b600260009054906101000a900473ffffffffffffffffffffffffffffffffffffffff1673ffffffffffffffffffffffffffffffffffffffff163373ffffffffffffffffffffffffffffffffffffffff161415156107f657600080fd5b5b8073ffffffffffffffffffffffffffffffffffffffff16600260009054906101000a900473ffffffffffffffffffffffffffffffffffffffff1673ffffffffffffffffffffffffffffffffffffffff167f8be0079c531659141344cd1fd0a4f28419497f9722a3daafe3b4186f6b6457e060405160405180910390a380600260006101000a81548173ffffffffffffffffffffffffffffffffffffffff021916908373ffffffffffffffffffffffffffffffffffffffff16021790555050565b6000809054906101000a900473ffffffffffffffffffffffffffffffffffffffff1681565b600160009054906101000a900473ffffffffffffffffffffffffffffffffffffffff1681565b6000600360009054906101000a900473ffffffffffffffffffffffffffffffffffffffff16905090565b600073ffffffffffffffffffffffffffffffffffffffff168173ffffffffffffffffffffffffffffffffffffffff161415151561096857600080fd5b600073ffffffffffffffffffffffffffffffffffffffff16600160009054906101000a900473ffffffffffffffffffffffffffffffffffffffff1673ffffffffffffffffffffffffffffffffffffffff161415610a1f576000809054906101000a900473ffffffffffffffffffffffffffffffffffffffff1673ffffffffffffffffffffffffffffffffffffffff163373ffffffffffffffffffffffffffffffffffffffff16141515610a1a57600080fd5b610a7c565b600160009054906101000a900473ffffffffffffffffffffffffffffffffffffffff1673ffffffffffffffffffffffffffffffffffffffff163373ffffffffffffffffffffffffffffffffffffffff16141515610a7b57600080fd5b5b8073ffffffffffffffffffffffffffffffffffffffff16600160009054906101000a900473ffffffffffffffffffffffffffffffffffffffff1673ffffffffffffffffffffffffffffffffffffffff167f8be0079c531659141344cd1fd0a4f28419497f9722a3daafe3b4186f6b6457e060405160405180910390a380600160006101000a81548173ffffffffffffffffffffffffffffffffffffffff021916908373ffffffffffffffffffffffffffffffffffffffff16021790555050565b6000600160009054906101000a900473ffffffffffffffffffffffffffffffffffffffff16905090565b6000809054906101000a900473ffffffffffffffffffffffffffffffffffffffff1673ffffffffffffffffffffffffffffffffffffffff163373ffffffffffffffffffffffffffffffffffffffff16141515610bc157600080fd5b600073ffffffffffffffffffffffffffffffffffffffff168173ffffffffffffffffffffffffffffffffffffffff1614151515610bfd57600080fd5b8073ffffffffffffffffffffffffffffffffffffffff166000809054906101000a900473ffffffffffffffffffffffffffffffffffffffff1673ffffffffffffffffffffffffffffffffffffffff167f8be0079c531659141344cd1fd0a4f28419497f9722a3daafe3b4186f6b6457e060405160405180910390a3806000806101000a81548173ffffffffffffffffffffffffffffffffffffffff021916908373ffffffffffffffffffffffffffffffffffffffff160217905550505600a165627a7a72305820bb7eb115a3bfebf61576ba0783c96466daefc66e0031e5ee28a50cdc41ab1eff0029",
  "source": "pragma solidity ^0.4.24;\n\nlibrary strings {\n    struct slice {\n        uint _len;\n        uint _ptr;\n    }\n\n    function memcpy(uint dest, uint src, uint len) private pure {\n        // Copy word-length chunks while possible\n        for(; len >= 32; len -= 32) {\n            assembly {\n                mstore(dest, mload(src))\n            }\n            dest += 32;\n            src += 32;\n        }\n\n        // Copy remaining bytes\n        uint mask = 256 ** (32 - len) - 1;\n        assembly {\n            let srcpart := and(mload(src), not(mask))\n            let destpart := and(mload(dest), mask)\n            mstore(dest, or(destpart, srcpart))\n        }\n    }\n\n    /*\n     * @dev Returns a slice containing the entire string.\n     * @param self The string to make a slice from.\n     * @return A newly allocated slice containing the entire string.\n     */\n    function toSlice(string memory self) internal pure returns (slice memory) {\n        uint ptr;\n        assembly {\n            ptr := add(self, 0x20)\n        }\n        return slice(bytes(self).length, ptr);\n    }\n\n    /*\n     * @dev Returns the length of a null-terminated bytes32 string.\n     * @param self The value to find the length of.\n     * @return The length of the string, from 0 to 32.\n     */\n    function len(bytes32 self) internal pure returns (uint) {\n        uint ret;\n        if (self == 0)\n            return 0;\n        if (self & 0xffffffffffffffffffffffffffffffff == 0) {\n            ret += 16;\n            self = bytes32(uint(self) / 0x100000000000000000000000000000000);\n        }\n        if (self & 0xffffffffffffffff == 0) {\n            ret += 8;\n            self = bytes32(uint(self) / 0x10000000000000000);\n        }\n        if (self & 0xffffffff == 0) {\n            ret += 4;\n            self = bytes32(uint(self) / 0x100000000);\n        }\n        if (self & 0xffff == 0) {\n            ret += 2;\n            self = bytes32(uint(self) / 0x10000);\n        }\n        if (self & 0xff == 0) {\n            ret += 1;\n        }\n        return 32 - ret;\n    }\n\n    /*\n     * @dev Returns a slice containing the entire bytes32, interpreted as a\n     *      null-terminated utf-8 string.\n     * @param self The bytes32 value to convert to a slice.\n     * @return A new slice containing the value of the input argument up to the\n     *         first null.\n     */\n    function toSliceB32(bytes32 self) internal pure returns (slice memory ret) {\n        // Allocate space for `self` in memory, copy it there, and point ret at it\n        assembly {\n            let ptr := mload(0x40)\n            mstore(0x40, add(ptr, 0x20))\n            mstore(ptr, self)\n            mstore(add(ret, 0x20), ptr)\n        }\n        ret._len = len(self);\n    }\n\n    /*\n     * @dev Returns a new slice containing the same data as the current slice.\n     * @param self The slice to copy.\n     * @return A new slice containing the same data as `self`.\n     */\n    function copy(slice memory self) internal pure returns (slice memory) {\n        return slice(self._len, self._ptr);\n    }\n\n    /*\n     * @dev Copies a slice to a new string.\n     * @param self The slice to copy.\n     * @return A newly allocated string containing the slice's text.\n     */\n    function toString(slice memory self) internal pure returns (string memory) {\n        string memory ret = new string(self._len);\n        uint retptr;\n        assembly { retptr := add(ret, 32) }\n\n        memcpy(retptr, self._ptr, self._len);\n        return ret;\n    }\n\n    /*\n     * @dev Returns the length in runes of the slice. Note that this operation\n     *      takes time proportional to the length of the slice; avoid using it\n     *      in loops, and call `slice.empty()` if you only need to know whether\n     *      the slice is empty or not.\n     * @param self The slice to operate on.\n     * @return The length of the slice in runes.\n     */\n    function len(slice memory self) internal pure returns (uint l) {\n        // Starting at ptr-31 means the LSB will be the byte we care about\n        uint ptr = self._ptr - 31;\n        uint end = ptr + self._len;\n        for (l = 0; ptr < end; l++) {\n            uint8 b;\n            assembly { b := and(mload(ptr), 0xFF) }\n            if (b < 0x80) {\n                ptr += 1;\n            } else if(b < 0xE0) {\n                ptr += 2;\n            } else if(b < 0xF0) {\n                ptr += 3;\n            } else if(b < 0xF8) {\n                ptr += 4;\n            } else if(b < 0xFC) {\n                ptr += 5;\n            } else {\n                ptr += 6;\n            }\n        }\n    }\n\n    /*\n     * @dev Returns true if the slice is empty (has a length of 0).\n     * @param self The slice to operate on.\n     * @return True if the slice is empty, False otherwise.\n     */\n    function empty(slice memory self) internal pure returns (bool) {\n        return self._len == 0;\n    }\n\n    /*\n     * @dev Returns a positive number if `other` comes lexicographically after\n     *      `self`, a negative number if it comes before, or zero if the\n     *      contents of the two slices are equal. Comparison is done per-rune,\n     *      on unicode codepoints.\n     * @param self The first slice to compare.\n     * @param other The second slice to compare.\n     * @return The result of the comparison.\n     */\n    function compare(slice memory self, slice memory other) internal pure returns (int) {\n        uint shortest = self._len;\n        if (other._len < self._len)\n            shortest = other._len;\n\n        uint selfptr = self._ptr;\n        uint otherptr = other._ptr;\n        for (uint idx = 0; idx < shortest; idx += 32) {\n            uint a;\n            uint b;\n            assembly {\n                a := mload(selfptr)\n                b := mload(otherptr)\n            }\n            if (a != b) {\n                // Mask out irrelevant bytes and check again\n                uint256 mask = uint256(-1); // 0xffff...\n                if(shortest < 32) {\n                  mask = ~(2 ** (8 * (32 - shortest + idx)) - 1);\n                }\n                uint256 diff = (a & mask) - (b & mask);\n                if (diff != 0)\n                    return int(diff);\n            }\n            selfptr += 32;\n            otherptr += 32;\n        }\n        return int(self._len) - int(other._len);\n    }\n\n    /*\n     * @dev Returns true if the two slices contain the same text.\n     * @param self The first slice to compare.\n     * @param self The second slice to compare.\n     * @return True if the slices are equal, false otherwise.\n     */\n    function equals(slice memory self, slice memory other) internal pure returns (bool) {\n        return compare(self, other) == 0;\n    }\n\n    /*\n     * @dev Extracts the first rune in the slice into `rune`, advancing the\n     *      slice to point to the next rune and returning `self`.\n     * @param self The slice to operate on.\n     * @param rune The slice that will contain the first rune.\n     * @return `rune`.\n     */\n    function nextRune(slice memory self, slice memory rune) internal pure returns (slice memory) {\n        rune._ptr = self._ptr;\n\n        if (self._len == 0) {\n            rune._len = 0;\n            return rune;\n        }\n\n        uint l;\n        uint b;\n        // Load the first byte of the rune into the LSBs of b\n        assembly { b := and(mload(sub(mload(add(self, 32)), 31)), 0xFF) }\n        if (b < 0x80) {\n            l = 1;\n        } else if(b < 0xE0) {\n            l = 2;\n        } else if(b < 0xF0) {\n            l = 3;\n        } else {\n            l = 4;\n        }\n\n        // Check for truncated codepoints\n        if (l > self._len) {\n            rune._len = self._len;\n            self._ptr += self._len;\n            self._len = 0;\n            return rune;\n        }\n\n        self._ptr += l;\n        self._len -= l;\n        rune._len = l;\n        return rune;\n    }\n\n    /*\n     * @dev Returns the first rune in the slice, advancing the slice to point\n     *      to the next rune.\n     * @param self The slice to operate on.\n     * @return A slice containing only the first rune from `self`.\n     */\n    function nextRune(slice memory self) internal pure returns (slice memory ret) {\n        nextRune(self, ret);\n    }\n\n    /*\n     * @dev Returns the number of the first codepoint in the slice.\n     * @param self The slice to operate on.\n     * @return The number of the first codepoint in the slice.\n     */\n    function ord(slice memory self) internal pure returns (uint ret) {\n        if (self._len == 0) {\n            return 0;\n        }\n\n        uint word;\n        uint length;\n        uint divisor = 2 ** 248;\n\n        // Load the rune into the MSBs of b\n        assembly { word:= mload(mload(add(self, 32))) }\n        uint b = word / divisor;\n        if (b < 0x80) {\n            ret = b;\n            length = 1;\n        } else if(b < 0xE0) {\n            ret = b & 0x1F;\n            length = 2;\n        } else if(b < 0xF0) {\n            ret = b & 0x0F;\n            length = 3;\n        } else {\n            ret = b & 0x07;\n            length = 4;\n        }\n\n        // Check for truncated codepoints\n        if (length > self._len) {\n            return 0;\n        }\n\n        for (uint i = 1; i < length; i++) {\n            divisor = divisor / 256;\n            b = (word / divisor) & 0xFF;\n            if (b & 0xC0 != 0x80) {\n                // Invalid UTF-8 sequence\n                return 0;\n            }\n            ret = (ret * 64) | (b & 0x3F);\n        }\n\n        return ret;\n    }\n\n    /*\n     * @dev Returns the keccak-256 hash of the slice.\n     * @param self The slice to hash.\n     * @return The hash of the slice.\n     */\n    function keccak(slice memory self) internal pure returns (bytes32 ret) {\n        assembly {\n            ret := keccak256(mload(add(self, 32)), mload(self))\n        }\n    }\n\n    /*\n     * @dev Returns true if `self` starts with `needle`.\n     * @param self The slice to operate on.\n     * @param needle The slice to search for.\n     * @return True if the slice starts with the provided text, false otherwise.\n     */\n    function startsWith(slice memory self, slice memory needle) internal pure returns (bool) {\n        if (self._len < needle._len) {\n            return false;\n        }\n\n        if (self._ptr == needle._ptr) {\n            return true;\n        }\n\n        bool equal;\n        assembly {\n            let length := mload(needle)\n            let selfptr := mload(add(self, 0x20))\n            let needleptr := mload(add(needle, 0x20))\n            equal := eq(keccak256(selfptr, length), keccak256(needleptr, length))\n        }\n        return equal;\n    }\n\n    /*\n     * @dev If `self` starts with `needle`, `needle` is removed from the\n     *      beginning of `self`. Otherwise, `self` is unmodified.\n     * @param self The slice to operate on.\n     * @param needle The slice to search for.\n     * @return `self`\n     */\n    function beyond(slice memory self, slice memory needle) internal pure returns (slice memory) {\n        if (self._len < needle._len) {\n            return self;\n        }\n\n        bool equal = true;\n        if (self._ptr != needle._ptr) {\n            assembly {\n                let length := mload(needle)\n                let selfptr := mload(add(self, 0x20))\n                let needleptr := mload(add(needle, 0x20))\n                equal := eq(keccak256(selfptr, length), keccak256(needleptr, length))\n            }\n        }\n\n        if (equal) {\n            self._len -= needle._len;\n            self._ptr += needle._len;\n        }\n\n        return self;\n    }\n\n    /*\n     * @dev Returns true if the slice ends with `needle`.\n     * @param self The slice to operate on.\n     * @param needle The slice to search for.\n     * @return True if the slice starts with the provided text, false otherwise.\n     */\n    function endsWith(slice memory self, slice memory needle) internal pure returns (bool) {\n        if (self._len < needle._len) {\n            return false;\n        }\n\n        uint selfptr = self._ptr + self._len - needle._len;\n\n        if (selfptr == needle._ptr) {\n            return true;\n        }\n\n        bool equal;\n        assembly {\n            let length := mload(needle)\n            let needleptr := mload(add(needle, 0x20))\n            equal := eq(keccak256(selfptr, length), keccak256(needleptr, length))\n        }\n\n        return equal;\n    }\n\n    /*\n     * @dev If `self` ends with `needle`, `needle` is removed from the\n     *      end of `self`. Otherwise, `self` is unmodified.\n     * @param self The slice to operate on.\n     * @param needle The slice to search for.\n     * @return `self`\n     */\n    function until(slice memory self, slice memory needle) internal pure returns (slice memory) {\n        if (self._len < needle._len) {\n            return self;\n        }\n\n        uint selfptr = self._ptr + self._len - needle._len;\n        bool equal = true;\n        if (selfptr != needle._ptr) {\n            assembly {\n                let length := mload(needle)\n                let needleptr := mload(add(needle, 0x20))\n                equal := eq(keccak256(selfptr, length), keccak256(needleptr, length))\n            }\n        }\n\n        if (equal) {\n            self._len -= needle._len;\n        }\n\n        return self;\n    }\n\n    // Returns the memory address of the first byte of the first occurrence of\n    // `needle` in `self`, or the first byte after `self` if not found.\n    function findPtr(uint selflen, uint selfptr, uint needlelen, uint needleptr) private pure returns (uint) {\n        uint ptr = selfptr;\n        uint idx;\n\n        if (needlelen <= selflen) {\n            if (needlelen <= 32) {\n                bytes32 mask = bytes32(~(2 ** (8 * (32 - needlelen)) - 1));\n\n                bytes32 needledata;\n                assembly { needledata := and(mload(needleptr), mask) }\n\n                uint end = selfptr + selflen - needlelen;\n                bytes32 ptrdata;\n                assembly { ptrdata := and(mload(ptr), mask) }\n\n                while (ptrdata != needledata) {\n                    if (ptr >= end)\n                        return selfptr + selflen;\n                    ptr++;\n                    assembly { ptrdata := and(mload(ptr), mask) }\n                }\n                return ptr;\n            } else {\n                // For long needles, use hashing\n                bytes32 hash;\n                assembly { hash := keccak256(needleptr, needlelen) }\n\n                for (idx = 0; idx <= selflen - needlelen; idx++) {\n                    bytes32 testHash;\n                    assembly { testHash := keccak256(ptr, needlelen) }\n                    if (hash == testHash)\n                        return ptr;\n                    ptr += 1;\n                }\n            }\n        }\n        return selfptr + selflen;\n    }\n\n    // Returns the memory address of the first byte after the last occurrence of\n    // `needle` in `self`, or the address of `self` if not found.\n    function rfindPtr(uint selflen, uint selfptr, uint needlelen, uint needleptr) private pure returns (uint) {\n        uint ptr;\n\n        if (needlelen <= selflen) {\n            if (needlelen <= 32) {\n                bytes32 mask = bytes32(~(2 ** (8 * (32 - needlelen)) - 1));\n\n                bytes32 needledata;\n                assembly { needledata := and(mload(needleptr), mask) }\n\n                ptr = selfptr + selflen - needlelen;\n                bytes32 ptrdata;\n                assembly { ptrdata := and(mload(ptr), mask) }\n\n                while (ptrdata != needledata) {\n                    if (ptr <= selfptr)\n                        return selfptr;\n                    ptr--;\n                    assembly { ptrdata := and(mload(ptr), mask) }\n                }\n                return ptr + needlelen;\n            } else {\n                // For long needles, use hashing\n                bytes32 hash;\n                assembly { hash := keccak256(needleptr, needlelen) }\n                ptr = selfptr + (selflen - needlelen);\n                while (ptr >= selfptr) {\n                    bytes32 testHash;\n                    assembly { testHash := keccak256(ptr, needlelen) }\n                    if (hash == testHash)\n                        return ptr + needlelen;\n                    ptr -= 1;\n                }\n            }\n        }\n        return selfptr;\n    }\n\n    /*\n     * @dev Modifies `self` to contain everything from the first occurrence of\n     *      `needle` to the end of the slice. `self` is set to the empty slice\n     *      if `needle` is not found.\n     * @param self The slice to search and modify.\n     * @param needle The text to search for.\n     * @return `self`.\n     */\n    function find(slice memory self, slice memory needle) internal pure returns (slice memory) {\n        uint ptr = findPtr(self._len, self._ptr, needle._len, needle._ptr);\n        self._len -= ptr - self._ptr;\n        self._ptr = ptr;\n        return self;\n    }\n\n    /*\n     * @dev Modifies `self` to contain the part of the string from the start of\n     *      `self` to the end of the first occurrence of `needle`. If `needle`\n     *      is not found, `self` is set to the empty slice.\n     * @param self The slice to search and modify.\n     * @param needle The text to search for.\n     * @return `self`.\n     */\n    function rfind(slice memory self, slice memory needle) internal pure returns (slice memory) {\n        uint ptr = rfindPtr(self._len, self._ptr, needle._len, needle._ptr);\n        self._len = ptr - self._ptr;\n        return self;\n    }\n\n    /*\n     * @dev Splits the slice, setting `self` to everything after the first\n     *      occurrence of `needle`, and `token` to everything before it. If\n     *      `needle` does not occur in `self`, `self` is set to the empty slice,\n     *      and `token` is set to the entirety of `self`.\n     * @param self The slice to split.\n     * @param needle The text to search for in `self`.\n     * @param token An output parameter to which the first token is written.\n     * @return `token`.\n     */\n    function split(slice memory self, slice memory needle, slice memory token) internal pure returns (slice memory) {\n        uint ptr = findPtr(self._len, self._ptr, needle._len, needle._ptr);\n        token._ptr = self._ptr;\n        token._len = ptr - self._ptr;\n        if (ptr == self._ptr + self._len) {\n            // Not found\n            self._len = 0;\n        } else {\n            self._len -= token._len + needle._len;\n            self._ptr = ptr + needle._len;\n        }\n        return token;\n    }\n\n    /*\n     * @dev Splits the slice, setting `self` to everything after the first\n     *      occurrence of `needle`, and returning everything before it. If\n     *      `needle` does not occur in `self`, `self` is set to the empty slice,\n     *      and the entirety of `self` is returned.\n     * @param self The slice to split.\n     * @param needle The text to search for in `self`.\n     * @return The part of `self` up to the first occurrence of `delim`.\n     */\n    function split(slice memory self, slice memory needle) internal pure returns (slice memory token) {\n        split(self, needle, token);\n    }\n\n    /*\n     * @dev Splits the slice, setting `self` to everything before the last\n     *      occurrence of `needle`, and `token` to everything after it. If\n     *      `needle` does not occur in `self`, `self` is set to the empty slice,\n     *      and `token` is set to the entirety of `self`.\n     * @param self The slice to split.\n     * @param needle The text to search for in `self`.\n     * @param token An output parameter to which the first token is written.\n     * @return `token`.\n     */\n    function rsplit(slice memory self, slice memory needle, slice memory token) internal pure returns (slice memory) {\n        uint ptr = rfindPtr(self._len, self._ptr, needle._len, needle._ptr);\n        token._ptr = ptr;\n        token._len = self._len - (ptr - self._ptr);\n        if (ptr == self._ptr) {\n            // Not found\n            self._len = 0;\n        } else {\n            self._len -= token._len + needle._len;\n        }\n        return token;\n    }\n\n    /*\n     * @dev Splits the slice, setting `self` to everything before the last\n     *      occurrence of `needle`, and returning everything after it. If\n     *      `needle` does not occur in `self`, `self` is set to the empty slice,\n     *      and the entirety of `self` is returned.\n     * @param self The slice to split.\n     * @param needle The text to search for in `self`.\n     * @return The part of `self` after the last occurrence of `delim`.\n     */\n    function rsplit(slice memory self, slice memory needle) internal pure returns (slice memory token) {\n        rsplit(self, needle, token);\n    }\n\n    /*\n     * @dev Counts the number of nonoverlapping occurrences of `needle` in `self`.\n     * @param self The slice to search.\n     * @param needle The text to search for in `self`.\n     * @return The number of occurrences of `needle` found in `self`.\n     */\n    function count(slice memory self, slice memory needle) internal pure returns (uint cnt) {\n        uint ptr = findPtr(self._len, self._ptr, needle._len, needle._ptr) + needle._len;\n        while (ptr <= self._ptr + self._len) {\n            cnt++;\n            ptr = findPtr(self._len - (ptr - self._ptr), ptr, needle._len, needle._ptr) + needle._len;\n        }\n    }\n\n    /*\n     * @dev Returns True if `self` contains `needle`.\n     * @param self The slice to search.\n     * @param needle The text to search for in `self`.\n     * @return True if `needle` is found in `self`, false otherwise.\n     */\n    function contains(slice memory self, slice memory needle) internal pure returns (bool) {\n        return rfindPtr(self._len, self._ptr, needle._len, needle._ptr) != self._ptr;\n    }\n\n    /*\n     * @dev Returns a newly allocated string containing the concatenation of\n     *      `self` and `other`.\n     * @param self The first slice to concatenate.\n     * @param other The second slice to concatenate.\n     * @return The concatenation of the two strings.\n     */\n    function concat(slice memory self, slice memory other) internal pure returns (string memory) {\n        string memory ret = new string(self._len + other._len);\n        uint retptr;\n        assembly { retptr := add(ret, 32) }\n        memcpy(retptr, self._ptr, self._len);\n        memcpy(retptr + self._len, other._ptr, other._len);\n        return ret;\n    }\n\n    /*\n     * @dev Joins an array of slices, using `self` as a delimiter, returning a\n     *      newly allocated string.\n     * @param self The delimiter to use.\n     * @param parts A list of slices to join.\n     * @return A newly allocated string containing all the slices in `parts`,\n     *         joined with `self`.\n     */\n    function join(slice memory self, slice[] memory parts) internal pure returns (string memory) {\n        if (parts.length == 0)\n            return \"\";\n\n        uint length = self._len * (parts.length - 1);\n        for(uint i = 0; i < parts.length; i++)\n            length += parts[i]._len;\n\n        string memory ret = new string(length);\n        uint retptr;\n        assembly { retptr := add(ret, 32) }\n\n        for(i = 0; i < parts.length; i++) {\n            memcpy(retptr, parts[i]._ptr, parts[i]._len);\n            retptr += parts[i]._len;\n            if (i < parts.length - 1) {\n                memcpy(retptr, self._ptr, self._len);\n                retptr += self._len;\n            }\n        }\n\n        return ret;\n    }\n}\n\n\n\ncontract ERC20 {\n\n    uint256 public totalSupply;\n\n    event Transfer(address indexed from, address indexed to, uint256 value);\n    event Approval(address indexed owner, address indexed spender, uint256 value);\n\n    function balanceOf(address who) public view returns (uint256);\n    function transfer(address to, uint256 value) public returns (bool);\n\n    function allowance(address owner, address spender) public view returns (uint256);\n    function approve(address spender, uint256 value) public returns (bool);\n    function transferFrom(address from, address to, uint256 value) public returns (bool);\n\n}\n\ncontract Ownable {\n  address public owner;\n  address public ceo;\n  address public cto;\n  address public cfo;\n  \n  event OwnershipTransferred(address indexed previousOwner, address indexed newOwner);\n\n  constructor() public {\n    owner = msg.sender;\n  }\n\n  modifier onlyOwner() {\n    require(msg.sender == owner);\n    _;\n  }\n\n  modifier onlyCEO() {\n    require(msg.sender == ceo);\n    _;\n  }\n\n  modifier onlyCFO() {\n    require(msg.sender == cfo);\n    _;\n  }\n\n  modifier onlyCTO() {\n    require(msg.sender == cto);\n    _;\n  }\n\n  modifier onlyCXO() {\n    require(msg.sender == cto || msg.sender == cfo || msg.sender == cfo);\n    _;\n  }\n\n  function transferOwnership(address newOwner) public onlyOwner {\n    require(newOwner != address(0));\n    emit OwnershipTransferred(owner, newOwner);\n    owner = newOwner;\n  }\n\n  function transferCEO(address newCEO) public {\n    require(newCEO != address(0));\n\n    // 如果原来的CEO没有设置 则sender必须是owner 否则必须是原来的CEO\n    if(ceo == address(0)) {\n        require(msg.sender == owner);\n    }else{\n        require(msg.sender == ceo);\n    }\n    emit OwnershipTransferred(ceo, newCEO);\n    ceo = newCEO;\n  }\n\n  function transferCFO(address newCFO) public {\n    require(newCFO != address(0));\n\n    // 如果原来的CFO没有设置 则sender必须是owner 否则必须是原来的CFO\n    if(cfo == address(0)) {\n        require(msg.sender == owner);\n    }else{\n        require(msg.sender == cfo);\n    }\n    emit OwnershipTransferred(cfo, newCFO);\n    cfo = newCFO;\n  }\n\n  function transferCTO(address newCTO) public {\n    require(newCTO != address(0));\n\n    // 如果原来的CTO没有设置 则sender必须是owner 否则必须是原来的CTO\n    if(cto == address(0)) {\n        require(msg.sender == owner);\n    }else{\n        require(msg.sender == cto);\n    }\n    emit OwnershipTransferred(cto, newCTO);\n    cto = newCTO;\n  }\n\n  function whoisCEO() public view returns (address){\n      return ceo;\n  }\n  function whoisCTO() public view returns (address){\n      return cto;\n  }\n  function whoisCFO() public view returns (address){\n      return cfo;\n  }\n\n}\n\ncontract ECRC {\n    // 十六进制字符串转换成bytes\n    function hexStr2bytes(string data) internal returns (bytes){\n\n        uint _ascii_0 = 48;\n        uint _ascii_A = 65;\n        uint _ascii_a = 97;\n\n        bytes memory a = bytes(data);\n        uint[] memory b = new uint[](a.length);\n\n        for (uint i = 0; i < a.length; i++) {\n            uint _a = uint(a[i]);\n\n            if (_a > 96) {\n                b[i] = _a - 97 + 10;\n            }\n            else if (_a > 66) {\n                b[i] = _a - 65 + 10;\n            }\n            else {\n                b[i] = _a - 48;\n            }\n        }\n\n        bytes memory c = new bytes(b.length / 2);\n        for (uint _i = 0; _i < b.length; _i += 2) {\n            c[_i / 2] = byte(b[_i] * 16 + b[_i + 1]);\n        }\n        return c;\n    }\n    \n      //bytes转换为bytes32\n    function bytesToBytes32(bytes memory source) internal returns (bytes32 result) {\n        assembly {\n            result := mload(add(source, 32))\n        }\n    }\n\n\n  //验签数据入口函数\n  function checkSign(bytes32 hashValue, string signValue, address addr) internal returns (bool){\n    bytes memory signedString = hexStr2bytes(signValue);\n    bytes32  r = bytesToBytes32(slice(signedString, 0, 32));\n    bytes32  s = bytesToBytes32(slice(signedString, 32, 32));\n    byte  v = slice(signedString, 64, 1)[0];\n    return ecrecoverDecode(hashValue, r, s, v)==addr;\n  }\n  \n  // 从签名内容和签名恢复出地址\n  function recoverAddress(bytes32 hashValue, string signValue) internal returns (address){\n    bytes memory signedString = hexStr2bytes(signValue);\n    bytes32  r = bytesToBytes32(slice(signedString, 0, 32));\n    bytes32  s = bytesToBytes32(slice(signedString, 32, 32));\n    byte  v = slice(signedString, 64, 1)[0];\n    return ecrecoverDecode(hashValue, r, s, v);\n  }\n\n  //将原始数据按段切割出来指定长度\n  function slice(bytes memory data, uint start, uint len)  internal returns (bytes){\n    bytes memory b = new bytes(len);\n\n    for(uint i = 0; i < len; i++){\n      b[i] = data[i + start];\n    }\n\n    return b;\n  }\n\n  //使用ecrecover恢复公匙\n  function ecrecoverDecode(bytes32 hashValue, bytes32 r, bytes32 s, byte v1) internal returns (address){\n     uint8 v = uint8(v1) + 27;\n    return ecrecover(hashValue, v, r, s);\n  }\n}\n\n\ncontract MultiSigAcount is Ownable, ECRC{\n    ERC20 private  _erc20;\n    mapping(address=>bool) private canSenders;\n    mapping(string=>bool) private isExistTx;\n    uint256 private minSenderNum;\n    bool private isPause;\n    using strings for *;\n    //event CheckTransferFail(string _txid, uint256 _value, address _from, address _to);\n    //event SuccessTransfer(string _txid, uint256 _value, address _from, address _to);\n    event TransferError(string _txid, uint256 _errno, address _to, uint256 _value);\n    /*\n    errno:\n        200: 转账成功\n\n        400: 余额不足\n        401: 签名数量不够\n        402: 签名错误\n        403: 重复订单\n        \n    */\n    \n    constructor(address _erc20addr) public{\n        _erc20 = ERC20(_erc20addr);\n        minSenderNum = 1;\n        isPause = false;\n    }\n    \n    function addSender(address _addr) onlyCFO() public{\n        canSenders[_addr] = true;\n    }\n    \n    function removeSender(address _addr) onlyCFO() public{\n        delete canSenders[_addr];\n    }\n    \n    function setMinSenderNum(uint256 _num) onlyCFO() public {\n        require(_num>0);\n        minSenderNum = _num;\n    }\n    \n    function pauseTransfer() onlyCXO() public {\n        isPause = true;\n    }\n    \n    function startTransfer()  onlyCTO() public {\n        isPause = false;\n    }\n    \n    function transferStatus() public view returns(bool) {\n       return !isPause;\n    }\n\n    function isSender(address _addr) public view returns (bool) {\n        return canSenders[_addr];\n    }    \n    \n    modifier onlyNoPause() {\n        require(isPause==false);\n        _;\n    }\n    \n    modifier onlyLtSenderNum(uint256 _num) {\n        require(_num>=minSenderNum);\n        _;\n    }\n    \n    function _transfer(address to, uint256 value) private returns(bool){\n        return _erc20.transfer(to, value);\n    }\n    \n    \n     function compareStrings (string a, string b) private pure returns (bool){\n       return keccak256(a) == keccak256(b);\n    }\n \n    function getBalance() public view returns (uint256) {\n        return _erc20.balanceOf(this);\n    }\n\n    function transfer(address _to, uint256 _value, string _txid, string _signs) onlyNoPause()  public returns (bool) {\n        uint256 balance = _erc20.balanceOf(this);\n        // 分隔多个签名\n        strings.slice memory s = _signs.toSlice();                \n        strings.slice memory delim = \",\".toSlice();                            \n        string[] memory allsigns = new string[](s.count(delim)+1);                  \n        for (uint i = 0; i < allsigns.length; i++) {                              \n           allsigns[i] = s.split(delim).toString();                               \n        }\n\n        // 进行条件判断\n        if (balance<=_value) {\n            emit TransferError(_txid, 400, _to, _value);\n            return false;\n        }\n\n        if (isExistTx[_txid]) {\n            emit TransferError(_txid, 403, _to, _value);\n            return false;\n        }\n\n        if (allsigns.length < minSenderNum) {\n            emit TransferError(_txid, 401, _to, _value);\n            return false;\n        }\n\n        // 对参数进行编码\n        bytes32  hashValue =  keccak256(abi.encode(_to, \"&\", _value, \"&\", _txid));\n        for(i=0; i<minSenderNum; i++) {\n           address fromAddr = recoverAddress(hashValue, allsigns[i]);\n          if (!canSenders[fromAddr]) {\n              emit TransferError(_txid, 402, _to, _value);\n              return false;\n          }\n        }\n        isExistTx[_txid] = true;\n        emit TransferError(_txid, 200, _to, _value);\n        return _transfer(_to, _value);\n    }\n}\n",
  "sourcePath": "/Users/wupengxin/soliditymutisign/contracts/mutisign.sol",
  "compiler": {
    "name": "solc",
    "version": "0.4.24+commit.e67f0147.Emscripten.clang"
  },
  "schemaVersion": "2.0.1",
  "updatedAt": "2018-12-09T12:06:40.657Z"
}